{
  "contractName": "Voting",
  "abi": [
    {
      "inputs": [
        {
          "internalType": "uint256",
          "name": "_startTime",
          "type": "uint256"
        },
        {
          "internalType": "uint256",
          "name": "_endTime",
          "type": "uint256"
        }
      ],
      "stateMutability": "nonpayable",
      "type": "constructor"
    },
    {
      "anonymous": false,
      "inputs": [
        {
          "indexed": false,
          "internalType": "uint256",
          "name": "id",
          "type": "uint256"
        },
        {
          "indexed": false,
          "internalType": "string",
          "name": "name",
          "type": "string"
        }
      ],
      "name": "CandidateAdded",
      "type": "event"
    },
    {
      "anonymous": false,
      "inputs": [
        {
          "indexed": false,
          "internalType": "uint256",
          "name": "id",
          "type": "uint256"
        },
        {
          "indexed": false,
          "internalType": "string",
          "name": "oldName",
          "type": "string"
        },
        {
          "indexed": false,
          "internalType": "string",
          "name": "newName",
          "type": "string"
        }
      ],
      "name": "CandidateNameUpdated",
      "type": "event"
    },
    {
      "anonymous": false,
      "inputs": [],
      "name": "Finalized",
      "type": "event"
    },
    {
      "anonymous": false,
      "inputs": [
        {
          "indexed": false,
          "internalType": "address",
          "name": "voter",
          "type": "address"
        },
        {
          "indexed": false,
          "internalType": "uint256",
          "name": "candidateId",
          "type": "uint256"
        },
        {
          "indexed": false,
          "internalType": "bytes32",
          "name": "voteHash",
          "type": "bytes32"
        },
        {
          "indexed": false,
          "internalType": "uint256",
          "name": "timestamp",
          "type": "uint256"
        }
      ],
      "name": "VoteCast",
      "type": "event"
    },
    {
      "anonymous": false,
      "inputs": [
        {
          "indexed": false,
          "internalType": "address",
          "name": "voter",
          "type": "address"
        }
      ],
      "name": "VoterRegistered",
      "type": "event"
    },
    {
      "inputs": [],
      "name": "admin",
      "outputs": [
        {
          "internalType": "address",
          "name": "",
          "type": "address"
        }
      ],
      "stateMutability": "view",
      "type": "function",
      "constant": true
    },
    {
      "inputs": [],
      "name": "candidateCount",
      "outputs": [
        {
          "internalType": "uint256",
          "name": "",
          "type": "uint256"
        }
      ],
      "stateMutability": "view",
      "type": "function",
      "constant": true
    },
    {
      "inputs": [
        {
          "internalType": "uint256",
          "name": "",
          "type": "uint256"
        }
      ],
      "name": "candidates",
      "outputs": [
        {
          "internalType": "uint256",
          "name": "id",
          "type": "uint256"
        },
        {
          "internalType": "string",
          "name": "name",
          "type": "string"
        },
        {
          "internalType": "uint256",
          "name": "votes",
          "type": "uint256"
        }
      ],
      "stateMutability": "view",
      "type": "function",
      "constant": true
    },
    {
      "inputs": [],
      "name": "endTime",
      "outputs": [
        {
          "internalType": "uint256",
          "name": "",
          "type": "uint256"
        }
      ],
      "stateMutability": "view",
      "type": "function",
      "constant": true
    },
    {
      "inputs": [],
      "name": "finalized",
      "outputs": [
        {
          "internalType": "bool",
          "name": "",
          "type": "bool"
        }
      ],
      "stateMutability": "view",
      "type": "function",
      "constant": true
    },
    {
      "inputs": [
        {
          "internalType": "address",
          "name": "",
          "type": "address"
        }
      ],
      "name": "registered",
      "outputs": [
        {
          "internalType": "bool",
          "name": "",
          "type": "bool"
        }
      ],
      "stateMutability": "view",
      "type": "function",
      "constant": true
    },
    {
      "inputs": [],
      "name": "startTime",
      "outputs": [
        {
          "internalType": "uint256",
          "name": "",
          "type": "uint256"
        }
      ],
      "stateMutability": "view",
      "type": "function",
      "constant": true
    },
    {
      "inputs": [
        {
          "internalType": "uint256",
          "name": "",
          "type": "uint256"
        }
      ],
      "name": "voteHashes",
      "outputs": [
        {
          "internalType": "bytes32",
          "name": "",
          "type": "bytes32"
        }
      ],
      "stateMutability": "view",
      "type": "function",
      "constant": true
    },
    {
      "inputs": [
        {
          "internalType": "address",
          "name": "",
          "type": "address"
        }
      ],
      "name": "voted",
      "outputs": [
        {
          "internalType": "bool",
          "name": "",
          "type": "bool"
        }
      ],
      "stateMutability": "view",
      "type": "function",
      "constant": true
    },
    {
      "inputs": [
        {
          "internalType": "string",
          "name": "name",
          "type": "string"
        }
      ],
      "name": "addCandidate",
      "outputs": [],
      "stateMutability": "nonpayable",
      "type": "function"
    },
    {
      "inputs": [
        {
          "internalType": "uint256",
          "name": "candidateId",
          "type": "uint256"
        },
        {
          "internalType": "string",
          "name": "newName",
          "type": "string"
        }
      ],
      "name": "updateCandidateName",
      "outputs": [],
      "stateMutability": "nonpayable",
      "type": "function"
    },
    {
      "inputs": [
        {
          "internalType": "address",
          "name": "voter",
          "type": "address"
        }
      ],
      "name": "registerVoter",
      "outputs": [],
      "stateMutability": "nonpayable",
      "type": "function"
    },
    {
      "inputs": [
        {
          "internalType": "uint256",
          "name": "candidateId",
          "type": "uint256"
        },
        {
          "internalType": "bytes32",
          "name": "voteHash",
          "type": "bytes32"
        }
      ],
      "name": "castVote",
      "outputs": [],
      "stateMutability": "nonpayable",
      "type": "function"
    },
    {
      "inputs": [],
      "name": "finalize",
      "outputs": [],
      "stateMutability": "nonpayable",
      "type": "function"
    }
  ],
  "bytecode": "0x60806040523480156200001157600080fd5b5060405162001c4538038062001c45833981810160405281019062000037919062000112565b8181116200007c576040517f08c379a00000000000000000000000000000000000000000000000000000000081526004016200007390620001ba565b60405180910390fd5b336000806101000a81548173ffffffffffffffffffffffffffffffffffffffff021916908373ffffffffffffffffffffffffffffffffffffffff16021790555081600181905550806002819055505050620001dc565b600080fd5b6000819050919050565b620000ec81620000d7565b8114620000f857600080fd5b50565b6000815190506200010c81620000e1565b92915050565b600080604083850312156200012c576200012b620000d2565b5b60006200013c85828601620000fb565b92505060206200014f85828601620000fb565b9150509250929050565b600082825260208201905092915050565b7f6261642074696d65730000000000000000000000000000000000000000000000600082015250565b6000620001a260098362000159565b9150620001af826200016a565b602082019050919050565b60006020820190508181036000830152620001d58162000193565b9050919050565b611a5980620001ec6000396000f3fe608060405234801561001057600080fd5b50600436106100ea5760003560e01c806378e979251161008c578063b2dd5c0711610066578063b2dd5c0714610239578063b3f05b9714610269578063ee20f82814610287578063f851a440146102a3576100ea565b806378e97925146101cd578063a9a981a3146101eb578063aec2ccae14610209576100ea565b8063462e91ec116100c8578063462e91ec1461015b5780634bb278f3146101775780636be2a1bd146101815780636d812fd11461019d576100ea565b80633197cbb6146100ef5780633477ee2e1461010d57806338db6dd31461013f575b600080fd5b6100f76102c1565b6040516101049190610d30565b60405180910390f35b61012760048036038101906101229190610d8b565b6102c7565b60405161013693929190610e48565b60405180910390f35b61015960048036038101906101549190610ee4565b610379565b005b61017560048036038101906101709190611046565b610526565b005b61017f61066a565b005b61019b600480360381019061019691906110c5565b610785565b005b6101b760048036038101906101b29190610d8b565b610a52565b6040516101c49190611114565b60405180910390f35b6101d5610a6a565b6040516101e29190610d30565b60405180910390f35b6101f3610a70565b6040516102009190610d30565b60405180910390f35b610223600480360381019061021e9190610ee4565b610a76565b604051610230919061114a565b60405180910390f35b610253600480360381019061024e9190610ee4565b610a96565b604051610260919061114a565b60405180910390f35b610271610ab6565b60405161027e919061114a565b60405180910390f35b6102a1600480360381019061029c9190611165565b610ac9565b005b6102ab610cf3565b6040516102b891906111d0565b60405180910390f35b60025481565b60046020528060005260406000206000915090508060000154908060010180546102f09061121a565b80601f016020809104026020016040519081016040528092919081815260200182805461031c9061121a565b80156103695780601f1061033e57610100808354040283529160200191610369565b820191906000526020600020905b81548152906001019060200180831161034c57829003601f168201915b5050505050908060020154905083565b60008054906101000a900473ffffffffffffffffffffffffffffffffffffffff1673ffffffffffffffffffffffffffffffffffffffff163373ffffffffffffffffffffffffffffffffffffffff1614610407576040517f08c379a00000000000000000000000000000000000000000000000000000000081526004016103fe90611297565b60405180910390fd5b600660008273ffffffffffffffffffffffffffffffffffffffff1673ffffffffffffffffffffffffffffffffffffffff16815260200190815260200160002060009054906101000a900460ff1615610494576040517f08c379a000000000000000000000000000000000000000000000000000000000815260040161048b90611303565b60405180910390fd5b6001600660008373ffffffffffffffffffffffffffffffffffffffff1673ffffffffffffffffffffffffffffffffffffffff16815260200190815260200160002060006101000a81548160ff0219169083151502179055507fb6be2187d059cc2a55fe29e0e503b566e1e0f8c8780096e185429350acffd3dd8160405161051b91906111d0565b60405180910390a150565b60008054906101000a900473ffffffffffffffffffffffffffffffffffffffff1673ffffffffffffffffffffffffffffffffffffffff163373ffffffffffffffffffffffffffffffffffffffff16146105b4576040517f08c379a00000000000000000000000000000000000000000000000000000000081526004016105ab90611297565b60405180910390fd5b600560008154809291906105c790611352565b919050555060405180606001604052806005548152602001828152602001600081525060046000600554815260200190815260200160002060008201518160000155602082015181600101908161061e9190611546565b50604082015181600201559050507fe83b2a43e7e82d975c8a0a6d2f045153c869e111136a34d1889ab7b598e396a36005548260405161065f929190611618565b60405180910390a150565b60008054906101000a900473ffffffffffffffffffffffffffffffffffffffff1673ffffffffffffffffffffffffffffffffffffffff163373ffffffffffffffffffffffffffffffffffffffff16146106f8576040517f08c379a00000000000000000000000000000000000000000000000000000000081526004016106ef90611297565b60405180910390fd5b600254421161073c576040517f08c379a000000000000000000000000000000000000000000000000000000000815260040161073390611694565b60405180910390fd5b6001600360006101000a81548160ff0219169083151502179055507f6823b073d48d6e3a7d385eeb601452d680e74bb46afe3255a7d778f3a9b1768160405160405180910390a1565b600154421015801561079957506002544211155b6107d8576040517f08c379a00000000000000000000000000000000000000000000000000000000081526004016107cf90611700565b60405180910390fd5b600660003373ffffffffffffffffffffffffffffffffffffffff1673ffffffffffffffffffffffffffffffffffffffff16815260200190815260200160002060009054906101000a900460ff16610864576040517f08c379a000000000000000000000000000000000000000000000000000000000815260040161085b9061176c565b60405180910390fd5b600760003373ffffffffffffffffffffffffffffffffffffffff1673ffffffffffffffffffffffffffffffffffffffff16815260200190815260200160002060009054906101000a900460ff16156108f1576040517f08c379a00000000000000000000000000000000000000000000000000000000081526004016108e8906117d8565b60405180910390fd5b60008211801561090357506005548211155b610942576040517f08c379a000000000000000000000000000000000000000000000000000000000815260040161093990611844565b60405180910390fd5b6001600760003373ffffffffffffffffffffffffffffffffffffffff1673ffffffffffffffffffffffffffffffffffffffff16815260200190815260200160002060006101000a81548160ff02191690831515021790555060016004600084815260200190815260200160002060020160008282546109c19190611864565b92505081905550600033426040516020016109dd929190611901565b6040516020818303038152906040528051906020012060001c90508160086000838152602001908152602001600020819055507f5b2b52f9d3586223133f031a813cfc2dbb1c20d0fc935bf1804be3e02e65791233848442604051610a45949392919061192d565b60405180910390a1505050565b60086020528060005260406000206000915090505481565b60015481565b60055481565b60076020528060005260406000206000915054906101000a900460ff1681565b60066020528060005260406000206000915054906101000a900460ff1681565b600360009054906101000a900460ff1681565b60008054906101000a900473ffffffffffffffffffffffffffffffffffffffff1673ffffffffffffffffffffffffffffffffffffffff163373ffffffffffffffffffffffffffffffffffffffff1614610b57576040517f08c379a0000000000000000000000000000000000000000000000000000000008152600401610b4e90611297565b60405180910390fd5b600082118015610b6957506005548211155b610ba8576040517f08c379a0000000000000000000000000000000000000000000000000000000008152600401610b9f90611844565b60405180910390fd5b6000815111610bec576040517f08c379a0000000000000000000000000000000000000000000000000000000008152600401610be3906119be565b60405180910390fd5b6000600460008481526020019081526020016000206001018054610c0f9061121a565b80601f0160208091040260200160405190810160405280929190818152602001828054610c3b9061121a565b8015610c885780601f10610c5d57610100808354040283529160200191610c88565b820191906000526020600020905b815481529060010190602001808311610c6b57829003601f168201915b5050505050905081600460008581526020019081526020016000206001019081610cb29190611546565b507f9cac3209d6b9c78d6d6181218fc280f72c902446d6f13135b50e891fb96ad749838284604051610ce6939291906119de565b60405180910390a1505050565b60008054906101000a900473ffffffffffffffffffffffffffffffffffffffff1681565b6000819050919050565b610d2a81610d17565b82525050565b6000602082019050610d456000830184610d21565b92915050565b6000604051905090565b600080fd5b600080fd5b610d6881610d17565b8114610d7357600080fd5b50565b600081359050610d8581610d5f565b92915050565b600060208284031215610da157610da0610d55565b5b6000610daf84828501610d76565b91505092915050565b600081519050919050565b600082825260208201905092915050565b60005b83811015610df2578082015181840152602081019050610dd7565b60008484015250505050565b6000601f19601f8301169050919050565b6000610e1a82610db8565b610e248185610dc3565b9350610e34818560208601610dd4565b610e3d81610dfe565b840191505092915050565b6000606082019050610e5d6000830186610d21565b8181036020830152610e6f8185610e0f565b9050610e7e6040830184610d21565b949350505050565b600073ffffffffffffffffffffffffffffffffffffffff82169050919050565b6000610eb182610e86565b9050919050565b610ec181610ea6565b8114610ecc57600080fd5b50565b600081359050610ede81610eb8565b92915050565b600060208284031215610efa57610ef9610d55565b5b6000610f0884828501610ecf565b91505092915050565b600080fd5b600080fd5b7f4e487b7100000000000000000000000000000000000000000000000000000000600052604160045260246000fd5b610f5382610dfe565b810181811067ffffffffffffffff82111715610f7257610f71610f1b565b5b80604052505050565b6000610f85610d4b565b9050610f918282610f4a565b919050565b600067ffffffffffffffff821115610fb157610fb0610f1b565b5b610fba82610dfe565b9050602081019050919050565b82818337600083830152505050565b6000610fe9610fe484610f96565b610f7b565b90508281526020810184848401111561100557611004610f16565b5b611010848285610fc7565b509392505050565b600082601f83011261102d5761102c610f11565b5b813561103d848260208601610fd6565b91505092915050565b60006020828403121561105c5761105b610d55565b5b600082013567ffffffffffffffff81111561107a57611079610d5a565b5b61108684828501611018565b91505092915050565b6000819050919050565b6110a28161108f565b81146110ad57600080fd5b50565b6000813590506110bf81611099565b92915050565b600080604083850312156110dc576110db610d55565b5b60006110ea85828601610d76565b92505060206110fb858286016110b0565b9150509250929050565b61110e8161108f565b82525050565b60006020820190506111296000830184611105565b92915050565b60008115159050919050565b6111448161112f565b82525050565b600060208201905061115f600083018461113b565b92915050565b6000806040838503121561117c5761117b610d55565b5b600061118a85828601610d76565b925050602083013567ffffffffffffffff8111156111ab576111aa610d5a565b5b6111b785828601611018565b9150509250929050565b6111ca81610ea6565b82525050565b60006020820190506111e560008301846111c1565b92915050565b7f4e487b7100000000000000000000000000000000000000000000000000000000600052602260045260246000fd5b6000600282049050600182168061123257607f821691505b602082108103611245576112446111eb565b5b50919050565b7f6f6e6c792061646d696e00000000000000000000000000000000000000000000600082015250565b6000611281600a83610dc3565b915061128c8261124b565b602082019050919050565b600060208201905081810360008301526112b081611274565b9050919050565b7f616c726561647920726567000000000000000000000000000000000000000000600082015250565b60006112ed600b83610dc3565b91506112f8826112b7565b602082019050919050565b6000602082019050818103600083015261131c816112e0565b9050919050565b7f4e487b7100000000000000000000000000000000000000000000000000000000600052601160045260246000fd5b600061135d82610d17565b91507fffffffffffffffffffffffffffffffffffffffffffffffffffffffffffffffff820361138f5761138e611323565b5b600182019050919050565b60008190508160005260206000209050919050565b60006020601f8301049050919050565b600082821b905092915050565b6000600883026113fc7fffffffffffffffffffffffffffffffffffffffffffffffffffffffffffffffff826113bf565b61140686836113bf565b95508019841693508086168417925050509392505050565b6000819050919050565b600061144361143e61143984610d17565b61141e565b610d17565b9050919050565b6000819050919050565b61145d83611428565b6114716114698261144a565b8484546113cc565b825550505050565b600090565b611486611479565b611491818484611454565b505050565b5b818110156114b5576114aa60008261147e565b600181019050611497565b5050565b601f8211156114fa576114cb8161139a565b6114d4846113af565b810160208510156114e3578190505b6114f76114ef856113af565b830182611496565b50505b505050565b600082821c905092915050565b600061151d600019846008026114ff565b1980831691505092915050565b6000611536838361150c565b9150826002028217905092915050565b61154f82610db8565b67ffffffffffffffff81111561156857611567610f1b565b5b611572825461121a565b61157d8282856114b9565b600060209050601f8311600181146115b0576000841561159e578287015190505b6115a8858261152a565b865550611610565b601f1984166115be8661139a565b60005b828110156115e6578489015182556001820191506020850194506020810190506115c1565b8683101561160357848901516115ff601f89168261150c565b8355505b6001600288020188555050505b505050505050565b600060408201905061162d6000830185610d21565b818103602083015261163f8184610e0f565b90509392505050565b7f766f74696e67206e6f7420656e64656400000000000000000000000000000000600082015250565b600061167e601083610dc3565b915061168982611648565b602082019050919050565b600060208201905081810360008301526116ad81611671565b9050919050565b7f6e6f7420766f74696e6720706572696f64000000000000000000000000000000600082015250565b60006116ea601183610dc3565b91506116f5826116b4565b602082019050919050565b60006020820190508181036000830152611719816116dd565b9050919050565b7f6e6f742072656769737465726564000000000000000000000000000000000000600082015250565b6000611756600e83610dc3565b915061176182611720565b602082019050919050565b6000602082019050818103600083015261178581611749565b9050919050565b7f616c726561647920766f74656400000000000000000000000000000000000000600082015250565b60006117c2600d83610dc3565b91506117cd8261178c565b602082019050919050565b600060208201905081810360008301526117f1816117b5565b9050919050565b7f696e76616c69642063616e646964617465000000000000000000000000000000600082015250565b600061182e601183610dc3565b9150611839826117f8565b602082019050919050565b6000602082019050818103600083015261185d81611821565b9050919050565b600061186f82610d17565b915061187a83610d17565b925082820190508082111561189257611891611323565b5b92915050565b60008160601b9050919050565b60006118b082611898565b9050919050565b60006118c2826118a5565b9050919050565b6118da6118d582610ea6565b6118b7565b82525050565b6000819050919050565b6118fb6118f682610d17565b6118e0565b82525050565b600061190d82856118c9565b60148201915061191d82846118ea565b6020820191508190509392505050565b600060808201905061194260008301876111c1565b61194f6020830186610d21565b61195c6040830185611105565b6119696060830184610d21565b95945050505050565b7f6e616d652063616e6e6f7420626520656d707479000000000000000000000000600082015250565b60006119a8601483610dc3565b91506119b382611972565b602082019050919050565b600060208201905081810360008301526119d78161199b565b9050919050565b60006060820190506119f36000830186610d21565b8181036020830152611a058185610e0f565b90508181036040830152611a198184610e0f565b905094935050505056fea2646970667358221220d28397facf52b546922678814f4fcdc94d29b812546da49f773af4f03e2bab6364736f6c63430008110033",
  "immutableReferences": {},
  "source": "// SPDX-License-Identifier: MIT\r\npragma solidity ^0.8.17;\r\n\r\ncontract Voting {\r\n    address public admin;\r\n    uint256 public startTime;\r\n    uint256 public endTime;\r\n    bool public finalized;\r\n\r\n    struct Candidate { uint256 id; string name; uint256 votes; }\r\n    mapping(uint256 => Candidate) public candidates;\r\n    uint256 public candidateCount;\r\n\r\n    mapping(address => bool) public registered;\r\n    mapping(address => bool) public voted;\r\n    mapping(uint256 => bytes32) public voteHashes;\r\n\r\n    event VoterRegistered(address voter);\r\n    event VoteCast(address voter, uint256 candidateId, bytes32 voteHash, uint256 timestamp);\r\n    event CandidateAdded(uint256 id, string name);\r\n    event CandidateNameUpdated(uint256 id, string oldName, string newName);\r\n    event Finalized();\r\n\r\n    modifier onlyAdmin() { require(msg.sender == admin, \"only admin\"); _; }\r\n    modifier duringVoting() { require(block.timestamp >= startTime && block.timestamp <= endTime, \"not voting period\"); _; }\r\n\r\n    constructor(uint256 _startTime, uint256 _endTime) {\r\n        require(_endTime > _startTime, \"bad times\");\r\n        admin = msg.sender;\r\n        startTime = _startTime;\r\n        endTime = _endTime;\r\n    }\r\n\r\n    function addCandidate(string memory name) external onlyAdmin {\r\n        candidateCount++;\r\n        candidates[candidateCount] = Candidate(candidateCount, name, 0);\r\n        emit CandidateAdded(candidateCount, name);\r\n    }\r\n\r\n    function updateCandidateName(uint256 candidateId, string memory newName) external onlyAdmin {\r\n        require(candidateId > 0 && candidateId <= candidateCount, \"invalid candidate\");\r\n        require(bytes(newName).length > 0, \"name cannot be empty\");\r\n        string memory oldName = candidates[candidateId].name;\r\n        candidates[candidateId].name = newName;\r\n        emit CandidateNameUpdated(candidateId, oldName, newName);\r\n    }\r\n\r\n    function registerVoter(address voter) external onlyAdmin {\r\n        require(!registered[voter], \"already reg\");\r\n        registered[voter] = true;\r\n        emit VoterRegistered(voter);\r\n    }\r\n\r\n    // candidateId: uint256, voteHash: bytes32 (sha256 of encrypted vote)\r\n    function castVote(uint256 candidateId, bytes32 voteHash) external duringVoting {\r\n        require(registered[msg.sender], \"not registered\");\r\n        require(!voted[msg.sender], \"already voted\");\r\n        require(candidateId > 0 && candidateId <= candidateCount, \"invalid candidate\");\r\n        voted[msg.sender] = true;\r\n        candidates[candidateId].votes += 1;\r\n        uint256 key = uint256(keccak256(abi.encodePacked(msg.sender, block.timestamp)));\r\n        voteHashes[key] = voteHash;\r\n        emit VoteCast(msg.sender, candidateId, voteHash, block.timestamp);\r\n    }\r\n\r\n    function finalize() external onlyAdmin {\r\n        require(block.timestamp > endTime, \"voting not ended\");\r\n        finalized = true;\r\n        emit Finalized();\r\n    }\r\n}\r\n",
  "sourcePath": "/home/sk/workspace/qriocity/Blockchain/Smart voting system - 200/blockchain/contracts/Voting.sol",
  "compiler": {
    "name": "solc",
    "version": "0.8.17+commit.8df45f5f.Emscripten.clang"
  },
  "schemaVersion": "3.4.16",
  "updatedAt": "2026-01-02T08:05:39.746Z",
  "networkType": "ethereum",
  "devdoc": {
    "kind": "dev",
    "methods": {},
    "version": 1
  },
  "userdoc": {
    "kind": "user",
    "methods": {},
    "version": 1
  }
}